:020000040800F2
:10000000C8100020CD010008613B00084B330008F8
:100010005D3B0008CD050008C95500080000000040
:10002000000000000000000000000000D94A0008A5
:100030001D06000800000000CD3F0008DB4A000854
:10004000E7010008E7010008E7010008E7010008F0
:10005000E7010008E7010008E7010008E7010008E0
:10006000E7010008E7010008E7010008E7010008D0
:10007000E7010008E7010008D1050008E1050008D4
:10008000E7010008E7010008E7010008E7010008B0
:10009000E7010008E7010008E7010008E7010008A0
:1000A000E7010008E7010008E7010008E701000890
:1000B000E70100084D4B00085D4B0008E701000810
:1000C000E7010008E7010008E7010008E701000870
:1000D000E701000875550008E7010008E70100087E
:1000E000E7010008E7010008E70100086D4B000880
:1000F0009D4B00088D4B00087D4B0008E701000870
:10010000E7010008E7010008E7010008E70100082F
:10011000E7010008E7010008E7010008E70100081F
:10012000E7010008E7010008E7010008E70100080F
:1001300000F002F800F03AF80AA090E8000C8244BF
:100140008344AAF10107DA4501D100F02FF8AFF29C
:10015000090EBAE80F0013F0010F18BFFB1A43F0A5
:1001600001031847BC780000DC780000103A24BF77
:1001700078C878C1FAD8520724BF30C830C144BF0C
:1001800004680C607047000000230024002500264E
:10019000103A28BF78C1FBD8520728BF30C148BFEA
:1001A0000B6070471FB51FBD10B510BD00F01DF9E5
:1001B0001146FFF7F7FF05F0D1FA00F03BF903B461
:1001C000FFF7F2FF03BC00F043F900000948804745
:1001D00009480047FEE7FEE7FEE7FEE7FEE7FEE729
:1001E000FEE7FEE7FEE7FEE704480549054A064B41
:1001F00070470000494B000831010008C80A002080
:10020000C8100020C80C0020C80C002040EA0103E0
:1002100010B59B070FD1042A0DD310C808C9121FAF
:100220009C42F8D020BA19BA884201D9012010BDE9
:100230004FF0FF3010BD1AB1D30703D0521C07E0B6
:10024000002010BD10F8013B11F8014B1B1B07D11A
:1002500010F8013B11F8014B1B1B01D1921EF1D18B
:10026000184610BD032A40F2308010F0030C00F055
:10027000158011F8013BBCF1020F624498BF11F8E0
:1002800001CB00F8013B38BF11F8013BA2F1040299
:1002900098BF00F801CB38BF00F8013B11F0030311
:1002A00000F07180083AC0F0088051F8043B083A29
:1002B00051F804CBA0E80810F5E7121D5CBF51F817
:1002C000043B40F8043BAFF30080D20724BF11F891
:1002D000013B11F801CB48BF11F8012B24BF00F8F6
:1002E000013B00F801CB48BF00F8012B70474FF0ED
:1002F00000020429C0F0128010F0030C00F01B80F3
:10030000CCF1040CBCF1020F18BF00F8012BA8BF00
:1003100020F8022BA1EB0C0100F00DB85FEAC17CC4
:1003200024BF00F8012B00F8012B48BF00F8012B77
:1003300070474FF0000200B51346944696462039A8
:1003400022BFA0E80C50A0E80C50B1F12001BFF48E
:10035000F7AF090728BFA0E80C5048BF0CC05DF8F4
:1003600004EB890028BF40F8042B08BF704748BF42
:1003700020F8022B11F0804F18BF00F8012B7047B6
:1003800070477047704710B5203AC0F00B80B1E855
:100390001850203AA0E81850B1E81850A0E81850BA
:1003A000BFF4F5AF5FEA027C24BFB1E81850A0E8C3
:1003B000185044BF18C918C0BDE810405FEA827CDD
:1003C00024BF51F8043B40F8043B08BF7047D207F4
:1003D00028BF31F8023B48BF11F8012B28BF20F895
:1003E000023B48BF00F8012B7047754600F02CF81F
:1003F000AE4605006946534620F00700854618B012
:1004000020B5FFF7F1FEBDE820404FF000064FF0A9
:1004100000074FF000084FF0000B21F00701AC4639
:10042000ACE8C009ACE8C009ACE8C009ACE8C00958
:100430008D46704710B50446AFF300802046BDE8F6
:100440001040FFF7BCBE000000487047680A00205B
:1004500001491820ABBEFEE72600020070470000ED
:10046000814204DB024600EBD273C3F34F01084A1A
:100470001160074A083A1060064A1160054A083AB6
:100480001060054A1160044A083A10607047000085
:1004900034080040340400403434014070B505464F
:1004A0000C463C4801780078401C3A4A10703A48A3
:1004B00040F82140012D22D10021204605F0C4FB47
:1004C00005D20122D102354800F0B0FE07E000223B
:1004D0004FF40061314800F0A9FE84F00044304937
:1004E000204605F0E5FA064605F08EFA2D4908800B
:1004F00001202D49087000212C4802F099F9022DA5
:1005000022D10021204605F09FFB05D201221103D4
:10051000224800F08BFE07E000224FF480511F4874
:1005200000F084FE84F000441D49204605F0C0FA26
:10053000064605F069FA1E49088002201D49087028
:1005400000211D4802F074F9032D22D1002120461C
:1005500005F07AFB05D201229102184800F066FEF0
:1005600007E000224FF48061144800F05FFE84F041
:1005700000440B49204605F09BFA064605F044FA74
:100580000F49088003200F49087000210E4802F02F
:100590004FF970BD22000020C40200200008014075
:1005A0000000C8441C00002023000020D4000020CC
:1005B0001E000020250000208C00002000100140BB
:1005C00020000020240000206401002000BFFEE77E
:1005D00010B5024800F06CF910BD00008002002048
:1005E00010B5024800F064F910BD00003C02002084
:1005F00030B590F840500124AC40C56B6C60046885
:1006000063604468102C04D10468A2600468E1604F
:1006100003E00468A1600468E26030BD704772B610
:1006200000BFFEE70146002291F82100022808D011
:100630000420886300BF002081F8200000BF012053
:1006400070470868006820F00E000B6818600868A2
:10065000006820F001000B68186091F8403001201C
:100660009840CB6B5860012081F8210000BF00202A
:1006700081F8200000BF1046E2E7000070B5044694
:10068000002594F82100022803D00420A06301254E
:10069000C1E02068006820F00E0021680860206832
:1006A000006820F00100216808605C4920688842E9
:1006B00052D95A4978392068884201D1012047E04F
:1006C000564964392068884201D1102040E05349DE
:1006D00050392068884201D1801539E04F493C39B2
:1006E0002068884201D1801432E04C4928392068C2
:1006F000884202D14FF480302AE0484914392068FA
:10070000884202D14FF4801022E044492068884298
:1007100001D140041CE042492068884201D10120F7
:1007200016E03F4914312068884201D110200FE0C3
:100730003B4928312068884201D1801508E03849BA
:100740003C312068884201D1801401E04FF48030B0
:100750003349091F086051E03049783920688842E0
:1007600001D1012047E02D4964392068884201D138
:10077000102040E0294950392068884201D1801575
:1007800039E026493C392068884201D1801432E0A2
:10079000224928392068884202D14FF480302AE06B
:1007A0001E4914392068884202D14FF4801022E09B
:1007B0001A492068884201D140041CE01849206889
:1007C000884201D1012016E0154914312068884281
:1007D00001D110200FE0124928312068884201D150
:1007E000801508E00E493C312068884201D1801410
:1007F00001E04FF48030094980394860012084F8D5
:10080000210000BF002084F8200000BF606B10B101
:100810002046616B8847284670BD0000800002407A
:1008200008040240014609B90120704708680068C1
:1008300020F001000A68106000200A6810600A6851
:1008400050600A6890600A68D060174A0868904251
:100850000BD2164A0868801A1422B0FBF2F080000E
:10086000086412480838C8630AE00F4A0868801A0A
:100870001422B0FBF2F0800008640B480838C8630B
:1008800091F8402001209040CA6B5060002088629F
:10089000C86208634863886381F8210000BF81F85B
:1008A000200000BF00BFC0E708040240080002406B
:1008B00070B50446E06B05682068066894F840103F
:1008C000042088402840002875D006F00400002845
:1008D000FAD02068006800F0200028B9206800687D
:1008E00020F0040021680860D5492068884254D966
:1008F000D34978392068884201D1042049E0D049A1
:1009000064392068884201D1402042E0CC49503906
:100910002068884201D100153BE0C9493C39206874
:10092000884202D14FF4804033E0C549283920681D
:10093000884202D14FF480202BE0C149143920684D
:10094000884202D14FF4800023E0BD4920688842EC
:1009500001D1C0041DE0BB492068884201D10420B8
:1009600017E0B84914312068884201D1402010E0D6
:10097000B44928312068884201D1001509E0B14905
:100980003C312068884202D14FF4804001E04FF4AE
:100990008020AC49091F086054E0A94978392068D3
:1009A000884201D104204AE0A54964392068884280
:1009B00002D1402043E04CE0A149503920688842F0
:1009C00001D100153BE09E493C392068884202D1A4
:1009D0004FF4804033E09A4928392068884202D198
:1009E0004FF480202BE0964914392068884202D1C8
:1009F0004FF4800023E092492068884201D1C0046E
:100A00001DE090492068884201D1042017E08D49FB
:100A100014312068884201D1402010E089492831F2
:100A20002068884201D1001509E086493C312068E0
:100A3000884202D14FF4804001E04FF48020804989
:100A400080394860E06A002802D02046E16A884781
:100A5000F4E094F84010022088402840002871D02B
:100A600006F002000028FAD02068006800F020009C
:100A700040B92068006820F00A0021680860012061
:100A800084F821006E492068884254D96C4978392D
:100A90002068884201D1022049E069496439206810
:100AA000884201D1202042E06549503920688842BF
:100AB00001D140153BE062493C392068884202D1AF
:100AC0004FF4005033E05E4928392068884202D153
:100AD0004FF400302BE05A4914392068884202D183
:100AE0004FF4001023E056492068884201D1800469
:100AF0001DE054492068884201D1022017E0514985
:100B000014312068884201D1202010E04D4928315D
:100B10002068884201D1401509E04A493C312068EB
:100B2000884202D14FF4005001E04FF400304549B3
:100B3000091F086054E0424978392068884202D190
:100B400002204AE057E03E4964392068884201D1DA
:100B5000202042E03A4950392068884201D14015AE
:100B60003BE037493C392068884202D14FF40050BD
:100B700033E0334928392068884202D14FF40030ED
:100B80002BE02F4914392068884202D14FF400101D
:100B900023E02B492068884201D180041DE02949C7
:100BA0002068884201D1022017E0264914312068CC
:100BB000884201D1202010E0224928312068884253
:100BC00001D1401509E01F493C312068884202D11B
:100BD0004FF4005001E04FF400301949803948606B
:100BE00000BF002084F8200000BFA06A30B3204678
:100BF000A16A884722E094F84010082088402840E5
:100C0000E0B106F00800C8B12068006820F00E00CE
:100C10002168086094F8401001208840E16B48602A
:100C20000120A06384F8210000BF002084F8200088
:100C300000BF206B10B12046216B884770BD0000BB
:100C400080000240080402400146002209B9012048
:100C500070471E4B086898420BD21D4B0868C01A9B
:100C60001423B0FBF3F08000086419480838C86307
:100C70000AE0164B0868C01A1423B0FBF3F080009A
:100C8000086412480838C863022081F82100086807
:100C9000026843F6F0708243D1E901031843CB6840
:100CA00018430B6918434B6918438B691843CB6988
:100CB000184302430868026000208863012081F81D
:100CC0002100002081F8200000BFC1E70804024095
:100CD000080002402DE9F04104460D4616461F4625
:100CE0004FF0000800BF94F82000012802D1022034
:100CF000BDE8F081012084F8200000BF94F82100B5
:100D000001282CD1022084F821000020A063206853
:100D1000006820F00100216808603B463246294601
:100D20002046FFF765FCE06A30B12068006840F0BB
:100D30000E00216808600BE02068006820F00400C5
:100D4000216808602068006840F00A002168086097
:100D50002068006840F001002168086006E000BFDC
:100D6000002084F8200000BF4FF002084046BFE793
:100D700070B5044600F060FA06462546681C10B1BE
:100D800004480078054400BF00F056FA801BA842D2
:100D9000FAD370BD080000202DE9F04102460B4651
:100DA00000208CE00127874007EA030100296FD06B
:100DB000464F4FEA900C57F82C4087074FEA177CB4
:100DC0000F2707FA0CF73C40414FBA4201D10027E8
:100DD00019E0404FBA4201D1012714E03E4FBA4218
:100DE00001D102270FE03D4FBA4201D103270AE0AB
:100DF0003B4FBA4201D1042705E03A4FBA4201D134
:100E0000052700E006274FEA807C4FEA1C7C07FAA2
:100E10000CF7A74232D1344F3F688F43DFF8C8C088
:100E2000CCF800700CF104073F688F430CF1040C00
:100E3000CCF800702C4F0C373F688F43DFF8A8C008
:100E40000CF10C0CCCF80070ACF104073F688F4338
:100E5000ACF1040CCCF8007087074FEA177C0F2721
:100E600007FA0CF4194F4FEA900C57F82C70A7436F
:100E7000DFF858C04FEA90084CF82870FF2901D8D5
:100E8000174600E0171D3D46FF2902D8870003E002
:100E900014E0A0F10807BF003E462F684FF00F0C8A
:100EA0000CFA06FC27EA0C074FF0040C0CFA06FCBF
:100EB00047EA0C072F60D7688F43D760401C23FA9E
:100EC00000F7002F7FF46EAFBDE8F081080001400D
:100ED00000080140000C01400010014000140140D6
:100EE00000180140001C0140000401402DE9F847B2
:100EF000024600239C467BE14FF0010808FA03F408
:100F0000D1F8008008EA0400A0427DD1DFF8F4A205
:100F1000D1F80480A8EB0A09D0453AD014DCB8F126
:100F2000030F50D009DCB8F1000F31D0B8F1010F38
:100F30001CD0B8F1020F49D120E0B8F1110F18D040
:100F4000B8F1120F42D11EE0B9F5881F25D006DC9A
:100F5000B9F5803F20D0B9F5801F37D11AE0B9F537
:100F6000001F18D0B9F5041F30D117E0D1F80CC01C
:100F70002DE0D1F80C8008F1040C28E0D1F80C80A9
:100F800008F1080C23E0D1F80C8008F10C0C1EE0ED
:100F900000BF00BF00BF00BF00BF00BFD1F8088086
:100FA000B8F1000F02D14FF0040C0BE0D1F808802B
:100FB000B8F1010F03D14FF0080C146102E04FF0BB
:100FC000080C546103E04FF0000C00E000BF00BFCC
:100FD000FF2801D8904601E002F104084646FF28A8
:100FE00002D84FEA830803E0A3F108084FEA880813
:100FF0004746D6F800804FF00F0909FA07F928EAAA
:1010000009080CFA07F900E07AE048EA0908C6F88E
:101010000080D1F8048008F08058B8F1805F6FD16B
:1010200000BFDFF8E481D8F8188048F00108DFF845
:10103000D891C9F81880C846D8F8188008F0010877
:10104000CDF8008000BF00BF4FEAB9384FEA9309DE
:1010500058F829504FEA83784FEA18794FF00F0873
:1010600008FA09F825EA0805DFF8A081424502D10F
:101070004FF0000824E0DFF89881424502D14FF09C
:1010800001081DE0DFF88C81424502D14FF00208D3
:1010900016E0DFF88481424502D14FF003080FE0EB
:1010A000DFF87881424502D14FF0040808E0DFF80C
:1010B0007081424502D14FF0050801E04FF006086B
:1010C0004FEA83794FEA197908FA09F848EA0505E1
:1010D000DFF850814FEA930948F82950D1F804808D
:1010E00008F48018B8F5801F0BD1DFF83C81D8F8E0
:1010F000008048EA0008DFF83091C9F800800AE073
:1011000075E0DFF82481D8F8008028EA0008DFF8CD
:101110001891C9F80080D1F8048008F40018B8F5D7
:10112000001F0ED1DFF8008108F10408D8F8008014
:1011300048EA0008DFF8F09009F10409C9F80080D6
:101140000DE0DFF8E48008F10408D8F8008028EA10
:101150000008DFF8D49009F10409C9F80080D1F83B
:10116000048008F40038B8F5003F0ED1DFF8B880ED
:10117000A8F10408D8F8008048EA0008DFF8A89031
:10118000A9F10409C9F800800DE0DFF89C80A8F1FE
:101190000408D8F8008028EA0008DFF88C90A9F14C
:1011A0000409C9F80080D1F8048008F48038B8F543
:1011B000803F0ED1DFF87080A8F10808D8F80080D1
:1011C00048EA0008DFF86090A9F10809C9F8008032
:1011D0000DE0DFF85480A8F10808D8F8008028EA6C
:1011E0000008DFF84490A9F10809C9F800805B1CE9
:1011F000D1F8008028FA03F8B8F1000F7FF47CAE34
:10120000BDE8F887000011100010024000080140FE
:10121000000C014000100140001401400018014082
:10122000001C014008000140080401400AB10161AE
:1012300001E00B040361704701480068704700003B
:101240000000002070B504460CB9012070BD94F870
:101250003D0028B9002084F83C00204600F092F9B7
:10126000242084F83D002068006820F001002168F7
:1012700008602068006840F4004021680860206829
:10128000006820F400402168086000F077FB054604
:101290005C496068884206D85B48854201D20120DB
:1012A00007E0002005E05948854201D2012000E016
:1012B0000020012800D1C9E75548B5FBF0F62068A9
:1012C000406820F03F003043216848604D49606825
:1012D000884201D8701C07E04FF4967070434FF4B9
:1012E0007A71B0FBF1F0401C2168096A21F03F01DE
:1012F00008432168086243496068884214D8681E20
:1013000061684900B0FBF1F0401CC0F30B000428F9
:1013100001D204203DE0681E61684900B0FBF1F095
:10132000401CC0F30B0034E0A06838B9681E616847
:1013300001EB4101B0FBF1F0401C0AE0681E61685E
:1013400001EBC10202EB0111B0FBF1F0401C40F4D3
:101350008040C0F30B0008B901201AE0A06848B92A
:10136000681E616801EB4101B0FBF1F0401CC0F365
:101370000B000CE0681E616801EBC10202EB011179
:10138000B0FBF1F0401CC0F30B0040F4804040F48F
:1013900000402168C9694CF6FF72914308432168F7
:1013A000C861D4E9070108432168096821F0C00138
:1013B000084321680860D4E903100843216889685C
:1013C00048F2FF329143084321688860D4E905015F
:1013D00008432168C96821F0FF0108432168C860FB
:1013E0002068006840F00100216808600020206447
:1013F000202084F83D000020206384F83E0000BFD8
:1014000024E70000A086010080841E0000093D0042
:1014100040420F002DE9F8430446894616461F4610
:10142000DDF82080FFF708FF054694F83D002028EE
:101430007ED11923012251492046009502F039F846
:1014400010B10220BDE8F88300BF94F83C000128E9
:1014500001D10220F6E7012084F83C0000BF20689B
:10146000006800F0010028B92068006840F0010021
:10147000216808602068006820F400602168086026
:10148000212084F83D00102084F83E0000202064D4
:1014900066626785608D20853948E0622B4642464A
:1014A0004946204601F072FF08B10120CAE700BF9B
:1014B00000200090206840690090206880690090BA
:1014C00000BF00BF44E02A464146204602F0CDF866
:1014D00050B1206C042805D12068006840F40070E9
:1014E000216808600120ADE7606A00782168086122
:1014F000606A401C6062608D401E6085208D401EC9
:10150000208520684069C0F3800070B1208D60B1F3
:10151000606A007821680861606A401C6062608DC2
:10152000401E6085208D401E20852A46414600E0F1
:1015300022E0204601F08AFF50B1206C042805D13A
:101540002068006840F4007021680860012079E795
:10155000208D0028B7D12068006840F40070216811
:101560000860202084F83D00002084F83E0000BF81
:1015700084F83C0000BF65E7022063E7020010002A
:101580000000FFFF10B586B00446002002900390D3
:101590000490059016492068884226D100BF15485E
:1015A000806940F00800134988610846806900F0AE
:1015B0000800019000BF00BF4FF44060029012206D
:1015C00003900320059002A90B48FFF78FFC00BF92
:1015D0000848C06940F480000649C8610846C069EF
:1015E00000F48000019000BF00BF06B010BD0000F5
:1015F0000058004000100240000C01400348006801
:101600000349097808440149086070470000002038
:101610000800002010B50848006840F01000064996
:101620000860032000F0CAF80F2000F007F800F06F
:101630002BF8002010BD00000020024070B50446C9
:101640000E4800784FF47A71B1FBF0F00C4909684C
:10165000B1FBF0F5284600F01BFC08B1012070BD7D
:10166000102C07D200222146501E00F069F80548D0
:10167000046001E00120F2E70020F0E7080000200C
:101680000C0000200400002008B500BF114880694C
:1016900040F001000F4988610846806900F00100B0
:1016A000009000BF00BF00BF0846C06940F08050F6
:1016B000C8610846C06900F08050009000BF00BFBC
:1016C00000BF0549486820F0E06040F000704860C5
:1016D00000BF08BD001002400000014010B50146E7
:1016E0000846002817DB00F01F0301229A400B4B2D
:1016F000440943F8242000BF00BF00BFBFF34F8F51
:1017000000BF00BF00BF00BF00BF00BFBFF36F8FAF
:1017100000BF00BF00BF00BF10BD000080E100E0BF
:1017200001460846002809DB00F01F0301229A4009
:1017300043099B0003F1E023C3F8002100BF704779
:101740002DE9F05F80460D461646002703F0C4FFE2
:10175000074639462A46334601F00700C0F1070A1A
:10176000BAF1040F02D94FF0040A01E0C0F1070AF0
:10177000D14600F1040ABAF1070F02D24FF0000A75
:1017800001E0A0F1030AD4464FF0010A0AFA09FA6F
:10179000AAF1010A0AEA020A0AFA0CFA4FF0010B4E
:1017A0000BFA0CFBABF1010B0BEA030B4AEA0B043F
:1017B0002146404603F098FFBDE8F09F00BF00F0CF
:1017C0000702064B19684FF6FF031940044B0B4301
:1017D00043EA0221014B196000BF70470CED00E0A5
:1017E0000000FA0570B504460D460CB9012070BD25
:1017F0005A48006800F00700A8420ED25748006817
:1018000020F007002843554908600846006800F0AA
:101810000700A84201D00120E9E7207800F002008B
:1018200002281DD1207800F00400042805D14C487E
:10183000406840F4E0604A494860207800F00800C1
:10184000082805D14648406840F460504449486043
:101850004348406820F0F000A168084340494860D0
:10186000207800F0010078B36068012806D13C4878
:10187000006800F4003090B90120B8E760680228E1
:1018800006D13748006800F0007040B90120AEE78B
:101890003348006800F0020008B90120A7E730488B
:1018A000406820F00300616808432D494860FFF755
:1018B000C3FC064609E0FFF7BFFC801B41F28831FC
:1018C000884202D9032092E707E02548406800F0EB
:1018D0000C006168B0EB810FEDD12048006800F08A
:1018E0000700A8420ED91D48006820F007002843D1
:1018F0001A4908600846006800F00700A84201D0B5
:10190000012074E7207800F00400042807D114486F
:10191000406820F4E060E16808431149486020789D
:1019200000F00800082808D10D48406820F46050F5
:10193000216940EAC1000A49486000F03FF80849BF
:101940004968C1F30311074A515CC8400649086061
:1019500006480068FFF772FE002048E700200240BA
:1019600000100240BC5C00080C00002004000020B5
:1019700001480068704700000C00002000B5FFF728
:10198000F7FF04494968C1F30221034A515CC8408A
:1019900000BD000000100240CC5C000800B5FFF75D
:1019A000E7FF04494968C1F3C221034A515CC840BA
:1019B00000BD000000100240CC5C000870B50021A2
:1019C0000022002400230020134D696801F00C055B
:1019D000F5B1042D02D0082D19D101E00F4819E00E
:1019E0000F4DC1F38346AB5D01F4803555B10A4D0F
:1019F0006D68C5F340450B4E725D084D5D43B5FB08
:101A0000F2F402E0084D03FB05F4204602E000BFBB
:101A1000024800BF00BF70BD0010024000127A00F3
:101A2000AA5C0008BA5C000800093D00F8B504464D
:101A30000CB90120F8BD207800F00100002878D012
:101A4000F848406800F00C0004280CD0F5484068C5
:101A500000F00C00082811D1F248406800F48030F2
:101A6000B0F5803F0AD1EF48006800F4003000284C
:101A70005FD0606800285CD10120DBE700BF6068B0
:101A8000B0F5803F06D1E748006840F48030E54972
:101A9000086028E0606858B9E248006820F48030A7
:101AA000E04908600846006820F4802008601AE0D9
:101AB0006068B0F5A02F0BD1DA48006840F48020B0
:101AC000D84908600846006840F4803008600AE0A1
:101AD000D448006820F48030D24908600846006885
:101AE00020F48020086000BF606888B1FFF7A4FB85
:101AF000054606E0FFF7A0FB401B642801D9032040
:101B000098E7C848006800F400300028F2D010E0E0
:101B1000FFF792FB054606E0FFF78EFB401B6428AB
:101B200001D9032086E7BF48006800F40030002890
:101B3000F2D1207800F00200022857D1B94840685D
:101B400000F00C0050B1B748406800F00C000828C5
:101B500018D1B448406800F4803098B9B1480068A2
:101B600000F0020020B12069012801D0012061E7C6
:101B7000AC48006820F0F800616940EAC100A9495A
:101B8000086033E02069E8B10120A7490860FFF749
:101B900053FB054606E0FFF74FFB401B022801D927
:101BA000032047E79F48006800F002000028F2D0B9
:101BB0009C48006820F0F800616940EAC10099493A
:101BC000086013E0002098490860FFF735FB0546E0
:101BD00006E0FFF731FB401B022801D9032029E76B
:101BE0009048006800F002000028F2D1207800F050
:101BF000080008282DD1A069B8B101208B490860E0
:101C0000FFF71AFB054606E0FFF716FB401B02280C
:101C100001D903200EE78348406A00F00200002843
:101C2000F2D0012002F044FF13E000207F49086059
:101C3000FFF702FB054606E0FFF7FEFA401B02280D
:101C400001D90320F6E67748406A00F00200002838
:101C5000F2D1207800F00400042873D100277148E5
:101C6000C06900F0805070B900BF6E48C06940F094
:101C700080506C49C8610846C06900F080500090EF
:101C800000BF00BF01276A48006800F48070B0B947
:101C90006748006840F4807065490860FFF7CCFA37
:101CA000054606E0FFF7C8FA401B642801D9032067
:101CB000C0E65F48006800F480700028F2D000BFE2
:101CC000E068012806D15748006A40F001005549F4
:101CD000086227E0E06858B95248006A20F0010025
:101CE000504908620846006A20F00400086219E0C2
:101CF000E06805280BD14B48006A40F004004949D0
:101D000008620846006A40F0010008620AE045489F
:101D1000006A20F00100434908620846006A20F08A
:101D20000400086200BFE068A0B1FFF785FA05462D
:101D300009E0FFF781FA401B41F28831884202D95D
:101D4000032077E622E03748006A00F0020000280E
:101D5000EFD012E0FFF770FA054608E0FFF76CFAE3
:101D6000401B41F28831884201D9032062E62D48A8
:101D7000006A00F002000028F0D1012F05D12948A7
:101D8000C06920F080502749C86100BFE069C8B32E
:101D90002448406800F00C00082860D0E069022860
:101DA00048D1002020490866FFF746FA054606E0BC
:101DB000FFF742FA401B022801D903203AE61948EE
:101DC000006800F000700028F2D1206AB0F5803F72
:101DD00007D11448406820F40030A1680843114935
:101DE0004860D4E9080108430E49496821F4741198
:101DF00008430C49486001200B490866FFF71CFAAC
:101E0000054607E03DE0FFF717FA401B022801D91D
:101E100003200FE60348006800F000700028F2D0AD
:101E20002FE00000001002400000424280044242C5
:101E300000700040002014490866FFF7FDF90546D0
:101E400006E0FFF7F9F9401B022801D90320F1E56C
:101E50000E48006800F000700028F2D111E0E0693F
:101E6000012800D1E6E50948466806F48031206A79
:101E7000814204D106F47011606A814201D00120D0
:101E8000D8E50020D6E500000000424200100240E4
:101E900070B504462546681EB0F1807F01D301204D
:101EA0000FE0681E4FF0E02148610F214FF0FF3036
:101EB00003F01AFC00204FF0E02188610720086140
:101EC000002070BD7047704710B50346002200BF68
:101ED00093F83C00012801D1022010BD012083F8B5
:101EE0003C0000BF22F0FF00CC6840EA040222F46C
:101EF00040708C6840EA040222F480604C6840EA3A
:101F0000040222F400600C6840EA040222F48050CB
:101F10000C6940EA040222F400504C6940EA0402D1
:101F200022F48040CC6940EA04021868426400BF91
:101F3000002083F83C0000BF00BFCEE730B502466A
:101F40000B4600BF92F83C00012801D1022030BDB1
:101F5000012082F83C0000BF022082F83D0010689A
:101F600044681068816824F070041868044310689D
:101F70004460144D1068A84213D0134D1068A84255
:101F80000FD01068B0F1804F0BD0104D1068A842F0
:101F900007D00F4D1068A84203D00E4D1068A8421C
:101FA00005D121F08001586801431068816001204B
:101FB00082F83D0000BF002082F83C0000BF00BF57
:101FC000C5E70000002C014000340140000400403F
:101FD00000080040000C004010B504460CB9012078
:101FE00010BD94F83D0028B9002084F83C0020463C
:101FF00000F026F8022084F83D00211D206802F040
:10200000D5FD012084F8460000BF84F83E00012180
:102010003F200155402001554120015500BF00BF20
:10202000012084F8420043200155442001554520F9
:10203000015500BF012084F83D000020D0E70000DA
:1020400038B504463D492068884216D100BF3C4857
:10205000C06940F002003A49C8610846C06900F012
:102060000200009000BF00BF002211461D20FFF7B4
:1020700067FB1D20FFF754FB5EE032492068884271
:1020800016D100BF2E48C06940F004002C49C86139
:102090000846C06900F00400009000BF00BF0022A5
:1020A00011461E20FFF74CFB1E20FFF739FB43E0D3
:1020B0002549206888420DD100BF2148C06940F001
:1020C00008001F49C8610846C06900F00800009078
:1020D00000BF31E01D49206888422DD100BF18485B
:1020E000806940F40050164988610846806900F410
:1020F0000050009000BF00BF002211462B20FFF7C8
:102100001FFB2B20FFF70CFB002211462C20FFF7B2
:1021100017FB2C20FFF704FB002211462D20FFF7B0
:102120000FFB2D20FFF7FCFA002211462E20FFF7AF
:1021300007FB2E20FFF7F4FA38BD00000004004032
:102140000010024000080040000C00400034014034
:102150002DE9F04104460D46002700BF94F83C00ED
:10216000012802D10220BDE8F081012084F83C0062
:1021700000BF022084F83D002068866826F07706BC
:1021800026F47F46206886602868502833D00CDC0F
:10219000202850D004DC00284BD0102851D149E031
:1021A000302849D040284CD139E060282DD0702803
:1021B00007D0B0F5805F03D0B0F5005F41D10DE0EE
:1021C00041E0D5E902136A68206802F056FD2068F4
:1021D000866846F077062068866034E0D5E9021309
:1021E0006A68206802F049FD2068806840F48040F9
:1021F0002168886027E0EA686968206802F02EFE9E
:102200005021206802F044FD1DE0EA6869682068FA
:1022100002F037FE6021206802F03AFD13E0EA6820
:102220006968206802F01AFE4021206802F030FD43
:1022300009E000BF00BF00BF2968206802F028FD48
:1022400001E0012700BF00BF012084F83D0000BF6E
:10225000002084F83C0000BF384684E7704770B522
:1022600004462068C5682068066906F00200022856
:1022700019D105F00200022815D1401F216808611C
:10228000012020772068806900F0030018B1204603
:10229000FFF7E4FF05E0204600F020F9204600F0BB
:1022A000D5F90020207706F00400042819D105F0A4
:1022B0000400042815D1C04321680861022020775A
:1022C0002068806900F4407018B12046FFF7C6FF0F
:1022D00005E0204600F002F9204600F0B7F90020A2
:1022E000207706F00800082819D105F00800082812
:1022F00015D1C04321680861042020772068C06997
:1023000000F0030018B12046FFF7A8FF05E02046C3
:1023100000F0E4F8204600F099F90020207706F05C
:102320001000102819D105F01000102815D1C04355
:1023300021680861082020772068C06900F4407097
:1023400018B12046FFF78AFF05E0204600F0C6F8E6
:10235000204600F07BF90020207706F0010048B10C
:1023600005F0010030B16FF00100216808612046DE
:1023700000F07EFB06F08000802809D105F0800087
:10238000802805D1C043216808612046FFF79AFDE7
:1023900006F04000402809D105F04000402805D152
:1023A000C04321680861204600F063FB06F020006E
:1023B000202809D105F02000202805D1C04321683C
:1023C00008612046FFF77FFD70BD000010B586B0A4
:1023D000044600200290039004900590374920683D
:1023E000884217D100BF3648806940F00400344964
:1023F00088610846806900F00400019000BF00BFBA
:102400004020029002200390059002A92D48FEF77B
:102410006DFD51E02C492068884217D100BF284843
:10242000806940F00800264988610846806900F00C
:102430000800019000BF00BF4020029002200390DE
:10244000059002A92148FEF751FD35E0204920689A
:10245000884216D100BF1A48806940F0040018492C
:1024600088610846806900F00400019000BF00BF49
:10247000022002900390059002A91248FEF736FD53
:102480001AE014492068884216D100BF0C488069C0
:1024900040F010000A4988610846806900F0100089
:1024A000019000BF00BF40200290022003900590E1
:1024B00002A90948FEF71AFD06B010BD000400404D
:1024C000001002400008014000080040000C0140DC
:1024D000000C0040003401400010014070472DE91D
:1024E000F04104460D461646002700BF94F83C0014
:1024F000012802D10220BDE8F081012084F83C00CF
:1025000000BF36B1042E1BD0082E31D00C2E5ED168
:1025100045E02946206802F0C5FB2068806940F04C
:102520000800216888612068806920F00400216823
:10253000886120688069296908432168886148E0CA
:102540002946206802F0E6FB2068806940F40060BC
:10255000216888612068806920F480602168886132
:1025600020688069296940EA01202168886130E09B
:102570002946206802F00CFC2068C06940F0080081
:102580002168C8612068C06920F004002168C86122
:102590002068C069296908432168C86119E0294693
:1025A000206802F031FC2068C06940F400602168B6
:1025B000C8612068C06920F480602168C861206813
:1025C000C069296940EA01202168C86101E001274A
:1025D00000BF00BF00BF002084F83C0000BF3846A9
:1025E00089E710B504460CB9012010BD94F83D00F0
:1025F00028B9002084F83C00204600F025F802208D
:1026000084F83D00211D206802F0D0FA012084F8F2
:10261000460000BF84F83E0001213F2001554020C4
:1026200001554120015500BF00BF012084F8420040
:1026300043200155442001554520015500BF01208C
:1026400084F83D000020D0E77047000010B5044634
:102650002B492068884218D12A480078022814D1D2
:1026600029480068401C2849086008460068274936
:102670000988884209DB002023490860002124489A
:1026800000F078F900201F4908702249206888422C
:1026900018D121480078032814D120480068401C34
:1026A0001E490860084600681D490988884209DB00
:1026B00000201A49086000211A4800F05BF9002048
:1026C0001549087018492068884218D117480078C1
:1026D000012814D116480068401C154908600846B6
:1026E000006814490988884209DB00201049086005
:1026F0000021114800F03EF900200C49087010BD7F
:102700000004004025000020140000201E000020CE
:102710008C0000200034014024000020180000201C
:102720002000002064010020000800402300002059
:10273000100000201C000020D400002070B50446CA
:102740000D4615B994F83E000BE0042D02D13F2050
:10275000005D06E0082D02D14020005D01E041202F
:10276000005D012801D0012070BD1DB9022084F850
:102770003E000EE0042D03D102213F20015508E068
:10278000082D03D102214020015502E00221412001
:10279000015501222946206802F05EFA1F4920688F
:1027A000884203D01E492068884201D1012000E000
:1027B000002028B12068406C40F400402168486443
:1027C00016492068884213D01549206888420FD0E6
:1027D0002068B0F1804F0BD012492068884207D0A2
:1027E00011492068884203D01049206888420CD1E2
:1027F0002068806800F00706062E0CD0206800686C
:1028000040F001002168086005E02068006840F0A1
:102810000100216808600020A6E70000002C0140AC
:10282000003401400004004000080040000C00405B
:10283000F0B504460D46002615B994F83E000BE0AD
:10284000042D02D13F20005D06E0082D02D140207A
:10285000005D01E04120005D012801D00120F0BDB4
:102860001DB9022084F83E000EE0042D03D10221A0
:102870003F20015508E0082D03D1022140200155D9
:1028800002E002214120015535B1042D0BD0082D65
:1028900010D00C2D1CD114E02068C06840F002005C
:1028A0002168C86016E02068C06840F00400216814
:1028B000C8600FE02068C06840F008002168C86068
:1028C00008E02068C06840F010002168C86001E09E
:1028D000012600BF00BFD6BB01222946206802F0B6
:1028E000BBF91F492068884203D01E4920688842EE
:1028F00001D1012000E0002028B12068406C40F4A4
:1029000000402168486416492068884213D0154960
:10291000206888420FD02068B0F1804F0BD0124958
:102920002068884207D011492068884203D01049A6
:10293000206888420CD12068806800F00707062FC5
:102940000CD02068006840F001002168086005E0B4
:102950002068006840F001002168086030467EE78A
:10296000002C0140003401400004004000080040F9
:10297000000C004070B504460D46002635B1042D0C
:102980000BD0082D10D00C2D1CD114E02068C0688D
:1029900020F002002168C86016E02068C06820F0BE
:1029A00004002168C8600FE02068C06820F00800BB
:1029B0002168C86008E02068C06820F01000216825
:1029C000C86001E0012600BF00BF002E4AD10022EE
:1029D0002946206802F040F923492068884203D044
:1029E00022492068884201D1012000E0002090B1F6
:1029F00000BF2068006A41F21111084050B92068F8
:102A0000006A8910084028B92068406C20F4004012
:102A10002168486400BF00BF2068006A41F21111BC
:102A2000084050B92068006A8910084028B9206819
:102A3000006820F001002168086000BF1DB9012076
:102A400084F83E000EE0042D03D101213F20015502
:102A500008E0082D03D101214020015502E00121A9
:102A600041200155304670BD002C0140003401402A
:102A7000704770477047704710B5044600BF00BFED
:102A800021680C3151E8001F21F4907021680C314D
:102A900041E80002002AF3D100BF00BF00BF216857
:102AA000143151E8001F21F001002168143141E880
:102AB0000002002AF3D100BF206B01280ED100BF15
:102AC00000BF21680C3151E8001F21F0100021687F
:102AD0000C3141E80002002AF3D100BF20684069B0
:102AE00000F0400030B300BF00BF2168143151E84E
:102AF000001F21F040002168143141E80002002A43
:102B0000F3D100BFE06B50B11048E16B4863E06B5C
:102B1000FDF7B4FDC0B1E06B416B884714E00020C5
:102B2000E085202084F84200002020632046FFF743
:102B3000A2FF09E00020E085202084F84200002068
:102B400020632046FFF797FF002010BDE74F0008E5
:102B500070B50446002520684069C0F3C01594F89C
:102B60004100212817D1B5B100BF00BF2168143141
:102B700051E8001F21F080002168143141E8000273
:102B8000002AF3D100BFA06B10B1A06BFDF74AFD86
:102B9000204602F0AFFA20684069C0F3801594F82F
:102BA0004200222817D1B5B100BF00BF21681431FF
:102BB00051E8001F21F040002168143141E8000273
:102BC000002AF3D100BFE06B10B1E06BFDF72AFDE6
:102BD000204602F049FA002070BD10B504460CB939
:102BE000012010BD242084F841002068C06820F432
:102BF00000502168C860204600F0D0F900206064D1
:102C000084F8410084F842002063606300BF84F8C8
:102C1000400000BF00BFE4E7704700002DE9F84F17
:102C20000446206805682068C668206847694FF038
:102C30000009CA4605F00F09B9F1000F0AD105F0E5
:102C4000200038B106F0200020B1204602F065FADD
:102C5000BDE8F88FB9F1000F7BD007F0010018B97B
:102C600006F49070002874D005F0010030B106F42D
:102C7000807018B1606C40F00100606405F00400E1
:102C800030B107F0010018B1606C40F002006064E0
:102C900005F0020030B107F0010018B1606C40F09F
:102CA0000400606405F0080048B106F0200010B987
:102CB00007F0010018B1606C40F008006064606CBF
:102CC000002845D005F0200028B106F0200010B102
:102CD000204602F022FA20684069C0F3801A606C36
:102CE00000F0080010B9BAF1000F2CD0204602F015
:102CF000BBF92068406900F0400000B300BF00BF8E
:102D00002168143151E8001F21F04000216814317E
:102D100041E80002002AF3D100BFE06B50B17748D0
:102D2000E16B4863E06BFDF7A9FC88B1E06B416B98
:102D300088470DE02046FFF76FFF09E009E02046D5
:102D4000FFF76AFF04E02046FFF766FF002060649B
:102D50007EE7206B012877D105F01000002873D0A2
:102D600006F010000028FAD000BF00200090206874
:102D70000068009020684068009000BF00BF206895
:102D8000406900F0400000285FD0E06B00684068B8
:102D90001FFA80F8B8F1000F55D0A08D404552DDE4
:102DA000A4F82E80E06B8069202843D000BF00BFCC
:102DB00021680C3151E8001F21F4807021680C312A
:102DC00041E80002002AF3D100BF00BF00BF216824
:102DD000143151E8001F21F001002168143141E84D
:102DE0000002002AF3D100BF00BF00BF21681431E8
:102DF00051E8001F21F040002168143141E8000231
:102E0000002AF3D100BF202084F842000020206374
:102E100000BF00BF21680C3151E8001F21F01000F5
:102E200021680C3141E80002002AF3D100BFE06BB9
:102E3000FDF7F8FB02206063A08DE28D801A81B25D
:102E40002046FFF717FE03E742E0A08DE18D401A10
:102E50001FFA80F8E08DD0B3B8F1000F37D000BF73
:102E600000BF21680C3151E8001F21F490702168E7
:102E70000C3141E80002002AF3D100BF00BF00BFBF
:102E80002168143151E8001F21F00100216814313C
:102E900041E80002002AF3D100BF202084F842005C
:102EA0000020206300BF00BF21680C3151E8001FE3
:102EB00021F0100021680C3141E80002002AF3D112
:102EC00000BF0220606341462046FFF7D3FDBFE606
:102ED00005F0800030B106F0800018B1204602F005
:102EE0009DFAB5E605F0400030B106F0400018B19B
:102EF000204602F0EFF8ABE600BFA9E6AB4E0008B3
:102F000010B5044605492068884205D102F002FB4D
:102F1000FEF792F90249086010BD00000038014038
:102F20002C00002010B504460CB9012010BDA0698A
:102F300000B100E000BF94F8410028B9002084F8F7
:102F40004000204600F05CF8242084F8410020680E
:102F5000C06820F400502168C860204602F05CF987
:102F60002068006920F49040216808612068406969
:102F700020F02A00216848612068C06840F40050B1
:102F80002168C86000206064202084F8410084F833
:102F900042000020606300BFC8E7000010B504468F
:102FA00013492068884214D11248806920F4804077
:102FB000104988614FF4C0610F48FDF7EDFEE06BEA
:102FC000FDF730FCA06BFDF72DFC2520FEF786FBFE
:102FD0000DE00A492068884209D10648C06920F4FA
:102FE00000300449C8610C210348FDF7D5FE10BD2F
:102FF0000038014000100240000801400044004039
:1030000010B586B00446002002900390049005900D
:103010005149206888426AD100BF5048806940F415
:1030200080404E4988610846806900F480400190E4
:1030300000BF00BF00BF0846806940F004008861FF
:103040000846806900F00400019000BF00BF4815E9
:103050000290022003900320059002A94048FDF74A
:1030600045FF4FF48060029000200390049002A975
:103070003B48FDF73BFF3B483B4908600020486068
:103080000021394881608021C160002101614161D6
:103090008161C161FDF7D8FD08B1FDF7C0FA00BF3D
:1030A0003148E063446200BF2E4814382F4908605D
:1030B0001020486000212D4881608021C1600021DE
:1030C000016141618161C161FDF7BEFD08B1FDF79C
:1030D000A6FA00BF2548A063446200BF0022114643
:1030E0002520FEF72DFB2520FEF71AFB31E02049B5
:1030F000206888422DD100BF1848C06940F40030D4
:103100001649C8610846C06900F40030019000BF4C
:1031100000BF00BF0846806940F00400886108468F
:10312000806900F00400019000BF00BF04200290FD
:10313000022003900320059002A90948FDF7D6FE5E
:103140000820029000200390049002A90448FDF793
:10315000CDFE06B010BD0000003801400010024056
:1031600000080140580002403C020020800200207C
:103170000044004070B504460D46164694F84200DF
:1031800020280BD105B10EB9012070BD00202063AD
:1031900032462946204602F0BDF8F6E70220F4E761
:1031A00070B504460D46164694F8420020280BD10F
:1031B00005B10EB9012070BD0020206332462946BA
:1031C000204602F00BF9F6E70220F4E710B50446BA
:1031D00003492068884201D102F0D6F910BD0000F1
:1031E0000038014070472DE9F84F04460E46174657
:1031F00099464FF0000A94F84100202850D106B1BA
:1032000017B90120BDE8F88F00206064212084F800
:103210004100FEF711F88246A784E784A068B0F564
:10322000805F04D1206910B90025B04602E0354620
:103230004FF000081EE05346002280212046CDF8C2
:10324000009002F01BF920B1202084F841000320F7
:10325000D8E745B9B8F80000C0F308002168486015
:1032600008F1020803E02878216848606D1CE08CB2
:10327000401EE084E08C0028DDD15346002240212E
:103280002046CDF8009002F0F9F820B1202084F813
:1032900041000320B6E7202084F841000020B1E778
:1032A0000220AFE7F7B50446154694F84100202800
:1032B00036D1019800B10DB90120FEBD0198206200
:1032C000A584E58400206064212084F8410015482D
:1032D000A16B88621448A16BC8621448A16B086393
:1032E0000020A16B486301AE23681A1D31682B468C
:1032F000A06BFDF7EFFC6FF040002168086000BF95
:1033000000BF2168143151E8001F41F0800021689E
:10331000143141E80002002AF3D100BF0020CCE7BD
:103320000220CAE7035000085B500008BF4E0008A7
:1033300000B5024603491068884201D102F0E4F862
:1033400000BD000000380140704700BFFEE70146A5
:1033500008684069C0F38020B0B16FF480600A68EB
:10336000506100200863202081F83D00002081F892
:103370003E00086C40F00400086400BF002081F8A3
:103380003C0000BF012070470020FCE72DE9F84316
:1033900004460D4617469846E66A082E04D0012ECC
:1033A00002D016F5803F06D12068006840F4807096
:1033B0002168086008E0206B122805D120680068A9
:1033C00040F48070216808603B4600224FF00111F4
:1033D0002046CDF8008000F06CF860B120680068ED
:1033E00000F48070B0F5807F02D14FF4007020644B
:1033F0000320BDE8F8832069B0F5804F04D105F0C3
:10340000FE002168086112E005F44070F02141EAF5
:10341000E0102168086143463A460B49204600F017
:10342000A7F808B10120E4E7E8B221680861434643
:103430003A460549891F204600F09AF808B1012054
:10344000D7E70020D5E700000800010070B504466A
:103450000D46164625E02046FFF779FF08B101200A
:1034600070BD681CE8B1FDF7E7FE801BA84200D8DC
:10347000BDB920684069C0F3800090B90020206386
:10348000202084F83D00002084F83E00206C40F0AD
:103490002000206400BF002084F83C0000BF012011
:1034A000DEE720684069C0F380000028D3D0002008
:1034B000D6E72DE9F04104460D4617461E46DDF8D5
:1034C000188038E0701CA8B3FDF7B6FEA0EB08002A
:1034D000B04200D876BBC5F3074001280AD1206866
:1034E0004069A9B20840A9B2884201D101200BE08D
:1034F000002009E020688069A9B20840A9B288428A
:1035000001D1012000E00020B84214D10020206346
:10351000202084F83D00002084F83E00206C40F01C
:103520002000206400BF002084F83C0000BF012080
:10353000BDE8F081FFE7C5F3074001280AD1206804
:103540004069A9B20840A9B2884201D101200BE02C
:10355000002009E020688069A9B20840A9B2884229
:1035600001D1012000E00020B842ABD00020DFE70D
:103570002DE9F04104460D4616461F4658E02068E6
:103580004069C0F38020E8B12068006840F4007012
:10359000216808606FF48060216848610020206322
:1035A000202084F83D00002084F83E00206C40F08C
:1035B0000400206400BF002084F83C0000BF01200C
:1035C000BDE8F081701C90B3FDF736FEC01BB04221
:1035D00000D866BBC5F3074001280AD120684069BE
:1035E000A9B20840A9B2884201D101200BE0002015
:1035F00009E020688069A9B20840A9B2884201D1D7
:10360000012000E0002090B900202063202084F8F1
:103610003D00002084F83E00206C40F02000206433
:1036200000BF002084F83C0000BF0120C8E7FFE78E
:10363000C5F3074001280AD120684069A9B20840B3
:10364000A9B2884201D101200BE0002009E02068E6
:103650008069A9B20840A9B2884201D1012000E0E6
:10366000002000288BD00020AAE770B504460D4644
:10367000164625E02046FFF76AFE08B1012070BD1E
:10368000681CE8B1FDF7D8FD801BA84200D8BDB981
:1036900020684069C0F3C01090B90020206320204A
:1036A00084F83D00002084F83E00206C40F02000AB
:1036B000206400BF002084F83C0000BF0120DEE74A
:1036C00020684069C0F3C0100028D3D00020D6E79E
:1036D00008B500BF0E48406940F001000C49486140
:1036E0000846406900F00100009000BF00BF0022C2
:1036F00011460E20FEF724F80E20FEF711F80022E6
:1037000011460F20FEF71CF80F20FEF709F808BD40
:103710000010024000B585B0002001900290039097
:10372000049000BF2D48806940F020002B4988613B
:103730000846806900F02000009000BF00BF00BF75
:103740000846806940F0040088610846806900F0FE
:103750000400009000BF00BF00BF0846806940F031
:10376000080088610846806900F00800009000BFEA
:1037700000BF00BF0846806940F01000886108461D
:10378000806900F01000009000BF00BF00224FF4DD
:10379000C0511348FDF74AFD00224FF480611148E3
:1037A000FDF744FD4FF4C05001900120029000202D
:1037B00003900220049001A90948FDF797FB4FF4FC
:1037C000806001900120029000200390022004906C
:1037D00001A90448FDF78AFB05B000BD00100240B6
:1037E000000801400010014010B50B480B4908606B
:1037F0000B484860002109488160C1604FF4804156
:103800000161002141618161C1610162FDF71AFD21
:1038100008B1FCF704FF10BD00580040380000203C
:10382000801A060000B58DB0002009900A900B9018
:103830000C90079008901C216846FCF77AFD204800
:103840002049086040F2CF20486000211D48816077
:103850006321C160002101618161FEF7BDFB08B1F8
:10386000FCF7DDFE4FF48050099009A91548FEF7DA
:103870006FFC08B1FCF7D3FE1248FEF7B2FE08B1A8
:10388000FCF7CDFE00200790089007A90D48FEF731
:1038900055FB08B1FCF7C3FE6020009000200190AA
:1038A00002900490002269460648FEF718FE08B10F
:1038B000FCF7B5FE0348FEF789FD0DB000BD000022
:1038C000000400408C00002000B58DB0002009905D
:1038D0000A900B900C90079008901C216846FCF70A
:1038E00028FD20482049086040F2CF204860002190
:1038F0001D4881606321C1600021016180218161D7
:10390000FEF76AFB08B1FCF78AFE4FF4805009907D
:1039100009A91548FEF71CFC08B1FCF780FE124807
:10392000FEF75FFE08B1FCF77AFE002007900890D2
:1039300007A90D48FEF702FB08B1FCF770FE6020F6
:1039400000900020019002900490002269460648F1
:10395000FEF7C5FD08B1FCF762FE0348FEF736FD31
:103960000DB000BD00080040D400002000B58DB0AF
:10397000002009900A900B900C90079008901C2151
:103980006846FCF7D6FC21482149086040F2CF2068
:10399000486000211E48816040F2CF71C160002163
:1039A000016180218161FEF717FB08B1FCF737FE4A
:1039B0004FF48050099009A91548FEF7C9FB08B1DA
:1039C000FCF72DFE1248FEF70CFE08B1FCF727FEAF
:1039D00000200790089007A90D48FEF7AFFA08B13C
:1039E000FCF71DFE602000900020019002900490E2
:1039F000042269460648FEF772FD08B1FCF70FFE87
:103A00000348FEF7E3FC0DB000BD0000000C0040D1
:103A10001C01002000B595B0002011901290139069
:103A200014900F9010901C2108A8FCF782FC202114
:103A30006846FCF77EFC2B482B49086040F2CF20FB
:103A400048600021284881606321C1600021016134
:103A500041618161FEF7C0FA08B1FCF7E0FD4FF467
:103A60008050119011A92048FEF772FB08B1FCF7B5
:103A7000D6FD1D48FEF7B5FD08B1FCF7D0FD0020CE
:103A80000F9010900FA91848FEF758FA08B1FCF7EC
:103A9000C6FD60200890002009900A900B900C90C1
:103AA0000D900E90002208A90F48FEF718FD08B1EE
:103AB000FCF7B5FD00200090019002900390049067
:103AC0004FF4005005900020079069460648FEF725
:103AD000FBF908B1FCF7A3FD0348FEF777FC15B02E
:103AE00000BD0000003401406401002010B50B4807
:103AF0000B4908604FF4E1304860002108488160BC
:103B0000C16001610C21416100218161C161FFF748
:103B100009FA08B1FCF783FD10BD00000038014030
:103B2000AC01002010B50B480B4908604FF4E130A0
:103B30004860002108488160C16001610C21416139
:103B400000218161C161FFF7EDF908B1FCF767FD64
:103B500010BD000000440040F401002000BFFEE75B
:103B600000BFFEE710B5AE2000F000F9202000F005
:103B7000FDF8102000F0FAF8B02000F0F7F8C820A7
:103B800000F0F4F8002000F0F1F8102000F0EEF85A
:103B9000402000F0EBF8812000F0E8F8DF2000F092
:103BA000E5F8A12000F0E2F8A62000F0DFF8A82058
:103BB00000F0DCF83F2000F0D9F8A42000F0D6F89F
:103BC000D32000F0D3F8002000F0D0F8D52000F08A
:103BD000CDF8F02000F0CAF8D92000F0C7F8222074
:103BE00000F0C4F8DA2000F0C1F8122000F0BEF8AE
:103BF000DB2000F0BBF8202000F0B8F88D2000F0AA
:103C0000B5F8142000F0B2F800F006F800F0B8F9AA
:103C1000AF2000F0ABF810BD10B54FF48061024842
:103C2000FCF765FB10BD0000E40200202DE9FC4319
:103C30000746884615461C46DDF824902078CDE9D5
:103C400000092078C61DF01706EB5070C01061788F
:103C50004843A5F12001D4F804C001FB00C26378F9
:103C60004146384600F001F9BDE8FC832DE9FF4FDD
:103C700085B0804617461C46DDF84890002621781E
:103C8000C81DC11700EB5171C91062785143091D5D
:103C9000C9B2049152E000200390B81901F0FEFC73
:103CA000054605B94DE04FF0000B20E0616804982F
:103CB0000BFB001AB8192A465146FCF7A7FA90B92F
:103CC0002078CDE9000963780AF10402404606999C
:103CD00000F0CBF86078404400F0FF08701986B21D
:103CE0000120039006E00BF1010000F0FF0B207AA9
:103CF0005845DBDC00BF039800BB012D0FD1CDF888
:103D00000090BA5DE36840460699FFF78FFFE068D0
:103D10004078404400F0FF08701986B20EE0CDF8FC
:103D200000902022E36840460699FFF77FFFE06895
:103D30004078404400F0FF08701986B2B85D002852
:103D4000A9D100BF09B0BDE8F08F000038B5044626
:103D50000D464FF0FF302B46224678210090024856
:103D6000FDF758FB38BD00003800002010B50446B0
:103D7000024844700221FFF7E9FF10BD2600002031
:103D80002DE9FC4380460C4616461F462046E117A7
:103D900004EB5171C1F3C7092046E11704EB5171DF
:103DA000C910A4EBC101CDB20720CDE9000706FA86
:103DB00005F0C2B22B464146484600F0A3F875B163
:103DC000681EC0B2C5F1080146FA01F209F101010D
:103DD000CDE90007C8B20023414600F093F8BDE8E2
:103DE000FC832DE9FC4781460C4616461F46DDF84C
:103DF00028802046E11704EB5171C1F3C70A204621
:103E0000E11704EB5171C910A4EBC101CDB2E8195F
:103E100008281BDD0720CDE9000806FA05F0C2B22C
:103E20002B464946504600F06DF878190938C0B263
:103E3000C5F1080146FA01F20AF10101CDE90008D5
:103E4000C8B20023494600F05DF80CE0E819401EB6
:103E5000C0B2CDE9000806FA05F0C2B22B464946C9
:103E6000504600F04FF8BDE8FC872DE9FC4F814635
:103E70008A4693461D460B9C2046E11704EB517180
:103E8000C1F3C707E11704EB5171C910A4EBC101DD
:103E9000C9B201914FF0000816E000260EE006FBC3
:103EA00005831BF803200AEBC603D9B209EB08030C
:103EB000D8B20C9BFFF764FF701CC6B2BE42EEDBAB
:103EC00008F1010000F0FF08A845E6DB0198B8B151
:103ED00005FB07F8002610E00C9808EB060300909D
:103EE0001BF803200AEBC703D9B209EB0603D8B2CB
:103EF000019BFFF776FF701CC6B2AE42ECDB00BF41
:103F0000BDE8FC8FF0B5DDE90545082801DA802918
:103F100000DBF0BD0DB1D643F2B2661CFF2707FAF5
:103F200006F61643C3F1080C47FA0CF73E43124F4E
:103F30003E70124E06EBC016765C3F783E400F4F47
:103F400007EBC0177E54661CFF27B74022EA07061E
:103F5000C3F1080CFF2747FA0CF7BE43064F3E702B
:103F6000064E06EBC016765C3F783E43034F07EBE8
:103F7000C0177E5400BFCCE728000020E4020020D8
:103F800010B540200F490870002418E004F1B0017A
:103F9000C8B2FFF7EBFE0020FFF7E8FE1020FFF7A6
:103FA000E5FE094800EBC41180220648401CFCF7DE
:103FB00059F981210348FFF7C9FE601CC4B2082CDF
:103FC000E4DB10BDE4060020E4020020704700009E
:103FD00010B50446012C7DD1FE49FCF75FFAFE497D
:103FE0000220FCF75BFA43F69820FCF7C1FE41F291
:103FF0008830FCF7BDFEF9484078302817D1F748E3
:10400000C078302813D1F6490120FCF747FAF5496A
:104010000220FCF743FA44F62060FCF7A9FEF249BF
:104020000120FCF73BFAF1490220FCF737FAEB4894
:104030004078302813D1E948C07831280FD1EC49B5
:104040000120FCF72BFAE7490220FCF727FA45F29A
:10405000F050FCF78DFEE5490220FCF71FFADF481F
:104060004078302817D1DD48C078322813D1E14993
:104070000120FCF713FADB490220FCF70FFA46F6A1
:104080006050FCF775FEDC490120FCF707FAD749C0
:104090000220FCF703FAD1484078312817D1CF48E5
:1040A000C078302813D1CE490120FCF7F7F9D34965
:1040B0000220FCF7F3F944F63820FCF759FECA4910
:1040C0000120FCF7EBF9CE490220FCF7E7F9C348E1
:1040D000407800E082E0312813D1C048C078312810
:1040E0000FD1C3490120FCF7D9F9C4490220FCF7DC
:1040F000D5F944F25060FCF73BFEC1490220FCF7C1
:10410000CDF9B6484078312817D1B448C078322864
:1041100013D1B8490120FCF7C1F9B8490220FCF7D6
:10412000BDF946F2A810FCF723FEB3490120FCF7C5
:10413000B5F9B3490220FCF7B1F9A8484078322814
:1041400017D1A648C078302813D1A5490120FCF723
:10415000A5F9AC490220FCF7A1F942F6E060FCF7B2
:1041600007FEA1490120FCF799F9A7490220FCF7B5
:1041700095F99A484078322813D19848C078312868
:104180000FD19B490120FCF789F99E490220FCF7D9
:1041900085F944F25060FCF7EBFD9B490220FCF7E7
:1041A0007DF98E484078322817D18C48C078322863
:1041B000FAD190490120FCF771F992490220FCF7ED
:1041C0006DF946F2A810FCF7D3FD8B490120FCF7EE
:1041D00065F98D490220FCF761F925E1022C7DD1BA
:1041E0007C490120FCF75AF988490220FCF756F96E
:1041F00043F69820FCF7BCFD78484078302817D16A
:104200007648C078302813D175490120FCF746F96B
:104210007F490220FCF742F944F62060FCF7A8FD34
:1042200071490120FCF73AF970490220FCF736F990
:104230006A484078302813D16848C07831280FD1B7
:104240006B490120FCF72AF971490220FCF726F995
:1042500045F2F050FCF78CFD64490220FCF71EF992
:104260005E484078302817D15C48C078322813D196
:1042700060490120FCF712F965490220FCF70EF9AC
:1042800046F66050FCF774FD5B490120FCF706F927
:1042900056490220FCF702F950484078312817D1DE
:1042A0004E48C078302813D14D490120FCF7F6F86C
:1042B00058490220FCF7F2F844F63820FCF758FD84
:1042C00049490120FCF7EAF84D490220FCF7E6F8DD
:1042D00042484078312815D1404800E0A5E0C07838
:1042E00031280FD142490120FCF7D8F84949022072
:1042F000FCF7D4F844F25060FCF73AFD4049022044
:10430000FCF7CCF835484078312817D13348C078CD
:10431000322813D137490120FCF7C0F83D4902206B
:10432000FCF7BCF846F2A810FCF722FD3249012048
:10433000FCF7B4F832490220FCF7B0F8274840787F
:10434000322818D12548C078302814D124490120BA
:10435000FCF7A4F84FF081410220FCF79FF842F6E9
:10436000E060FCF705FD20490120FCF797F826499D
:104370000220FCF793F819484078322814D11748E6
:10438000C078312810D11A490120FCF787F84FF086
:1043900081410220FCF782F844F25060FCF7E8FC0F
:1043A00019490220FCF77AF80C48407832283BD1B2
:1043B0000A48C0783228FAD10E490120FCF76EF87D
:1043C0004FF081410220FCF769F846F2A810FCF793
:1043D000CFFC21E00000A0410000B0C06709002030
:1043E000333333C100009CC1CDCC0CC10000C841A7
:1043F0000000A0C16666E6C1CDCC0C41000038C10A
:1044000000008841000060C000001041000050C161
:10441000000040C1000080C0FE490120FCF73EF8CA
:10442000FD490220FCF73AF825E3032C7ED1FB4935
:104430000120FCF733F8FA490220FCF72FF844F288
:104440005060FCF795FCF7484078302817D1F548C4
:10445000C078302813D1F4490120FCF71FF8F34944
:104460000220FCF71BF844F62060FCF781FCF049C1
:104470000120FCF713F8EF490220FCF70FF8E94898
:104480004078302813D1E748C07831280FD1EA4965
:104490000120FCF703F8E5490220FBF7FFFF45F296
:1044A000F050FCF765FCE3490220FBF7F7FFDD481D
:1044B0004078302817D1DB48C078322813D1DF4943
:1044C0000120FBF7EBFFD9490220FBF7E7FF46F697
:1044D0006050FCF74DFCCF490120FBF7DFFFD549C9
:1044E0000220FBF7DBFFCF484078312817D1CD48B9
:1044F000C078302813D1CC490120FBF7CFFFD04939
:104500000220FBF7CBFF44F63820FCF731FCC8490A
:104510000120FBF7C3FFCB490220FBF7BFFFC148D7
:104520004078312815D1BF48C07800E07EE03128BE
:104530000FD1C1490120FBF7B1FFC1490220FBF7B0
:10454000ADFF44F25060FCF713FCBE490220FBF7BC
:10455000A5FFB4484078312817D1B248C078322836
:1045600013D1B6490120FBF799FFB5490220FBF7AB
:1045700095FF46F2A810FCF7FBFBA6490120FBF7CC
:104580008DFFB0490220FBF789FFA648407832280A
:1045900017D1A448C078302813D1A3490120FBF7D4
:1045A0007DFFA9490220FBF779FF42F6E060FCF7A6
:1045B000DFFB9F490120FBF771FF97490220FBF7C2
:1045C0006DFF98484078322813D19648C07831283A
:1045D0000FD199490120FBF761FF9B490220FBF7AE
:1045E0005DFF44F25060FCF7C3FB8B490220FBF7F0
:1045F00055FF8C484078322817D18A48C078322835
:10460000FAD18E490120FBF749FF8F490220FBF7C1
:1046100045FF46F2A810FCF7ABFB7E490120FBF7F3
:104620003DFF7D490220FBF739FF24E2042C7DD1B8
:104630007A490120FBF732FF84490220FBF72EFF65
:1046400045F6C050FCF794FB76484078302817D1E7
:104650007448C078302813D173490120FBF71EFF3E
:104660007B490220FBF71AFF44F62060FCF780FB31
:104670006F490120FBF712FF6E490220FBF70EFF86
:1046800068484078302813D16648C07831280FD167
:1046900069490120FBF702FF6D490220FBF7FEFE8E
:1046A00045F2F050FCF764FB62490220FBF7F6FE8E
:1046B0005C484078302817D15A48C078322813D146
:1046C0005E490120FBF7EAFE61490220FBF7E6FEA6
:1046D00046F66050FCF74CFB4E490120FBF7DEFE2E
:1046E00054490220FBF7DAFE4E484078312817D1B2
:1046F0004C48C078302813D14B490120FBF7CEFE3F
:1047000054490220FBF7CAFE44F63820FCF730FB80
:1047100047490120FBF7C2FE4A490220FBF7BEFED3
:1047200040484078312815D13E4800E0A5E0C078E7
:1047300031280FD140490120FBF7B0FE4549022046
:10474000FBF7ACFE44F25060FCF712FB3D4902203F
:10475000FBF7A4FE33484078312817D13148C078A0
:10476000322813D135490120FBF798FE3949022040
:10477000FBF794FE46F2A810FCF7FAFA254901204F
:10478000FBF78CFE2F490220FBF788FE2548407876
:10479000322817D12348C078302813D1224901206C
:1047A000FBF77CFE2C490220FBF778FE44F62060E4
:1047B000FCF7DEFA1E490120FBF770FE16490220C5
:1047C000FBF76CFE17484078322813D11548C078A3
:1047D00031280FD118490120FBF760FE1E49022045
:1047E000FBF75CFE44F25060FCF7C2FA0A49022073
:1047F000FBF754FE0B48407832283DD10948C07879
:104800003228FAD10D490120FBF748FE1249022057
:1048100024E00000CDCC0C41000010410000A0417C
:104820000000A4C167090020333333C1000090C0E9
:10483000CDCC0CC10000C8410000A0C16666E6C135
:104840000000604000008841000038410000E0C1E5
:10485000000040400000304100009841FBF71EFE80
:1048600046F2A810FCF784FA83490120FBF716FEF4
:1048700082490220FBF712FEFDE0052CFCD18049A5
:104880000120FBF70BFE7F490220FBF707FE47F2F2
:104890003050FCF76DFA7C484078302817D17A48C0
:1048A000C078302813D179490120FBF7F7FD78490A
:1048B0000220FBF7F3FD44F62060FCF759FA754936
:1048C0000120FBF7EBFD74490220FBF7E7FD6E4882
:1048D0004078302813D16C48C07831280FD16F4907
:1048E0000120FBF7DBFD6A490220FBF7D7FD45F20B
:1048F000F050FCF73DFA68490220FBF7CFFD624813
:104900004078302817D16048C078322813D16449E4
:104910000120FBF7C3FD5E490220FBF7BFFD46F611
:104920006050FCF725FA54490120FBF7B7FD5A49BE
:104930000220FBF7B3FD54484078312817D1524884
:10494000C078302813D151490120FBF7A7FD554904
:104950000220FBF7A3FD44F63820FCF709FA4D4985
:104960000120FBF79BFD50490220FBF797FD4648CD
:104970004078312813D14448C07831280FD14749B5
:104980000120FBF78BFD47490220FBF787FD44F22E
:104990005060FCF7EDF944490220FBF77FFD3A48EF
:1049A0004078312817D13848C078322813D13C4993
:1049B0000120FBF773FD3B490220FBF76FFD46F238
:1049C000A810FCF7D5F92C490120FBF767FD364903
:1049D0000220FBF763FD2C484078322817D12A4883
:1049E000C078302813D129490120FBF757FD2F4902
:1049F0000220FBF753FD47F23050FCF7B9F9254987
:104A00000120FBF74BFD1D490220FBF747FD1E4827
:104A10004078322813D11C48C07831280FD11F4963
:104A20000120FBF73BFD21490220FBF737FD46F251
:104A3000A810FCF79DF911490220FBF72FFD124841
:104A40004078322817D11048C078322813D1144941
:104A50000120FBF723FD15490220FBF71FFD46F25D
:104A6000A810FCF785F904490120FBF717FD03495D
:104A70000220FBF713FD10BDCDCC0C41000010410E
:104A80000000A04100000EC267090020333333C18B
:104A900000002841CDCC0CC10000C8410000A0C1DD
:104AA0006666E6C100009441000088410000D441E0
:104AB00008B508490968C9084FF47A72B1FBF2F1E8
:104AC0004143009100BF00BF00994A1E0092002997
:104AD000F9D108BD0C000020704710B5FCF78EFD21
:104AE00010BD00B58FB0282105A8FBF722FC1421CA
:104AF0006846FBF71EFC012005900004069000208C
:104B000007900120099002200C90C1030D914FF4F1
:104B1000E0110E9105A8FCF789FF08B1FBF77FFDB6
:104B20000F20009002200190002002904FF480603E
:104B300003900020049002216846FCF753FE08B160
:104B4000FBF76DFD0FB000BD7047000010B50248C7
:104B5000FDF785FB10BD00008C00002010B5024859
:104B6000FDF77DFB10BD0000D400002010B5024809
:104B7000FDF775FB10BD00006401002010B5024870
:104B8000FDF76DFB10BD00006401002010B5024868
:104B9000FDF765FB10BD00006401002010B5024860
:104BA000FDF75DFB10BD00006401002010B5026838
:104BB000244B98420ED0244B98420BD0B0F1804F3A
:104BC00008D0224B984205D0214B984202D0214B6D
:104BD000984203D122F070024B681A43194B984255
:104BE0000ED0194B98420BD0B0F1804F08D0174B24
:104BF000984205D0164B984202D0164B984203D1EA
:104C000022F44072CB681A4322F080034C6943EAD5
:104C1000040202608B68C3620B688362094B98428E
:104C200002D0094B984201D10B6903630123436110
:104C3000036903F001031BB1036923F0010303615E
:104C400010BD0000002C0140003401400004004071
:104C500000080040000C004030B501F01F050124A1
:104C600004FA05F3046A9C430462046A01F01F0518
:104C700002FA05F52C43046230BD30B50C4681685C
:104C800021F47F4142EA032525432943816030BD59
:104C90000A46816821F0700142F0070319438160E0
:104CA0007047000030B5026A056A25F0010505620B
:104CB0004368846924F0700424F003040D682C43D5
:104CC00022F002028D682A43104DA84200D103E071
:104CD0000F4DA84206D100BF22F00802CD682A433A
:104CE00022F00402094DA84202D0094DA84207D182
:104CF00023F4807323F400734D692B438D692B4398
:104D0000436084614D684563026230BD002C014000
:104D10000034014030B5026A056A25F010050562CD
:104D20004368846924F4E04424F440740D6844EA40
:104D3000052422F020028D6842EA0512124DA84295
:104D400000D103E0114DA84207D100BF22F080023C
:104D5000CD6842EA051222F040020B4DA84202D073
:104D60000A4DA84209D123F4806323F400634D69FE
:104D700043EA85038D6943EA8503436084614D6896
:104D80008563026230BD0000002C01400034014008
:104D900030B5026A056A25F4807505624368C46906
:104DA00024F0700424F003040D682C4322F40072F4
:104DB0008D6842EA0522124DA84200D103E0114D50
:104DC000A84207D100BF22F40062CD6842EA052262
:104DD00022F480620A4DA84202D00A4DA84209D1AD
:104DE00023F4805323F400534D6943EA05138D697E
:104DF00043EA05134360C4614D68C563026230BD78
:104E0000002C01400034014030B5036A056A25F4E6
:104E1000805505624468C26922F4E04222F440727F
:104E20000D6842EA052223F400538D6843EA0533F6
:104E3000084DA84202D0084DA84204D124F4804471
:104E40004D6944EA85144460C2614D68056403629B
:104E500030BD0000002C01400034014030B50B464D
:104E60001446026A056A25F001050562816921F090
:104E7000F00141EA041122F00A021A438161026240
:104E800030BD30B50B461446026A056A25F01005A0
:104E90000562816921F4704141EA043122F0A002E7
:104EA00042EA03128161026230BD70B505466C6A48
:104EB0000020E085E0842046FDF7AEFE70BD70B5B1
:104EC00006460025746A20684069C0F3C01594F84E
:104ED0004100212805D125B10020E084204600F0C2
:104EE00009F920684069C0F3801594F8420022282F
:104EF00005D125B10020E085204600F0B5F8606CB2
:104F000040F0100060642046FDF786FE70BD70B56D
:104F100005466C6A2868006800F02000002842D12D
:104F2000E08500BF00BF21680C3151E8001F21F46B
:104F3000807021680C3141E80002002AF3D100BFE3
:104F400000BF00BF2168143151E8001F21F00100AB
:104F50002168143141E80002002AF3D100BF00BFEC
:104F600000BF2168143151E8001F21F04000216882
:104F7000143141E80002002AF3D100BF202084F858
:104F80004200206B01280ED100BF00BF21680C3108
:104F900051E8001F21F0100021680C3141E80002A7
:104FA000002AF3D100BF00206063206B012804D1E8
:104FB000A18D2046FDF75EFD02E02046FEF706F9D2
:104FC00070BD70B505466C6A01206063206B0128D6
:104FD00005D1A08D41082046FDF74CFD02E020469A
:104FE000FEF700F970BD70B505466C6A0020E085DB
:104FF000202084F84200002020632046FDF73BFD7E
:1050000070BD70B505466C6A2868006800F0200025
:10501000F8B90020E08400BF00BF2168143151E8D6
:10502000001F21F080002168143141E80002002AAD
:10503000F3D100BF00BF00BF21680C3151E8001F51
:1050400041F0400021680C3141E80002002AF3D110
:1050500002E02046FEF76CF970BD70B50446656A43
:105060002846FEF771F970BD00BF00BF02680C3220
:1050700052E8002F22F4907102680C3242E80013CB
:10508000002BF3D100BF00BF00BF0268143252E80A
:10509000002F22F001010268143242E80013002BB5
:1050A000F3D100BF016B01290ED100BF00BF026820
:1050B0000C3252E8002F22F0100102680C3242E854
:1050C0000013002BF3D100BF202180F842100021F3
:1050D0000163704710B504462068C06820F04000A6
:1050E0002168C860202084F841002046FEF720F99E
:1050F000002010BD00BF00BF02680C3252E8002F34
:1051000022F0C00102680C3242E80013002BF3D1F8
:1051100000BF202180F841107047F8B5044694F88C
:105120004200222875D1A068B0F5805F0CD12069BB
:1051300050B90025A66A20684068C0F30800308096
:10514000A06A801CA06215E0A56A0026A068B0F5E0
:10515000805F03D0A06828B9206918B9206840682A
:10516000287004E02068406800F07F002870A06A82
:10517000401CA062E08D401E80B2E085002846D130
:105180002068C06820F020002168C8602068C068DE
:1051900020F480702168C8602068406920F0010018
:1051A00021684861202084F8420000206063206B61
:1051B000012826D10020206300BF00BF21680C31E8
:1051C00051E8001F21F0100021680C3141E8000275
:1051D000002AF3D100BF2068006800F010001028FA
:1051E0000AD100BF0020009020680068009020686D
:1051F0004068009000BF00BFA18D2046FDF73AFC3B
:1052000002E02046FDF7E2FF0020F8BD01E00020AB
:10521000FBE70220F9E7000070B504462168096940
:1052200021F44051E2681143226811612269A168AA
:105230001143626941EA02052168C96841F20C62C2
:10524000914329432268D1602168496921F4407162
:10525000A2691143226851612D4A2168914202D10D
:10526000FCF79CFB01E0FCF789FB00EBC00101EBC4
:10527000001162689200B1FBF2F100EBC00202EB98
:10528000001263689B00B2FBF3F26423B2FBF3F2FB
:1052900002EBC20303EB0212A1EB8201322202EB0A
:1052A00001116422B1FBF2F101F0F00100EBC00248
:1052B00002EB001263689B00B2FBF3F26423B2FBC3
:1052C000F3F201EB021200EBC00101EB0011636885
:1052D0009B00B1FBF3F100EBC00303EB0013666826
:1052E000B600B3FBF6F36426B3FBF6F303EBC30699
:1052F00006EB0313A1EB8301322303EB01116423BB
:10530000B1FBF3F101F00F0111442268916070BD0F
:105310000038014077B581B0044615460298A06276
:10532000A58500206064222084F842002848E16BB3
:1053300088622848E16BC8622748E16B0863002057
:10534000E16B486302AE32682368191D2B46E06B9F
:10535000FBF7C0FC00BF00200090206800680090B0
:1053600020684068009000BF00BF206970B100BF96
:1053700000BF21680C3151E8001F41F480702168A2
:105380000C3141E80002002AF3D100BF00BF00BF8A
:105390002168143151E8001F41F0010021681431E7
:1053A00041E80002002AF3D100BF00BF00BF21681E
:1053B000143151E8001F41F040002168143141E8E8
:1053C0000002002AF3D100BF002004B070BD00002D
:1053D0000F4F0008C34F0008BF4E000810B503462A
:1053E00099629A85DA8500205864222083F8420069
:1053F000186928B11868C06840F480701C68E060C3
:105400001868406940F001001C6860611868C06855
:1054100040F020001C68E060002010BD014691F8BB
:105420004100212828D18868B0F5805F0BD1086938
:1054300048B90A6A1088C0F308000B685860086A07
:10544000801C086205E00B6A581C086218780B681B
:105450005860C88C401E80B2C88458B90868C068BB
:1054600020F080000B68D8600868C06840F04000F9
:105470000B68D860002070470220FCE72DE9F84354
:1054800004460D4617469846089E31E0701C70B3DE
:10549000FBF7D2FEA0EB0800B04200D816B90320FB
:1054A000BDE8F8832068C06800F00400F8B1802DE2
:1054B0001ED0402D1CD020680068C0F3C000B0B1E1
:1054C00000BF0020009020680068009020684068BD
:1054D000009000BF00BF2046FFF7C6FD08206064B3
:1054E00000BF002084F8400000BF0120D8E7FFE79C
:1054F000206800682840A84201D1012000E0002077
:10550000B842C3D00020CBE7002001490880704793
:105510003000002038B5144800680068C0F300105F
:1055200000B300BF002000900F48006800680090A2
:105530000D4800684068009000BF00BF0A48FDF7B2
:1055400007FB0948C06B00684068C0F580740748D5
:10555000007838B934B1FF2C04D805490C800120FB
:105560000249087038BD0000AC0100203400002062
:105570003200002010B50348FDF7C2FC0148FDF7DA
:105580004DFB10BDAC01002008B5FF220C490D48B1
:10559000FDF7F0FD00BF002000900A480068006899
:1055A0000090084800684068009000BF00BF0548B0
:1055B0000068C06840F0100002490968C86008BD72
:1055C00068090020AC01002000BFFEE710B50948C3
:1055D000FDF752FA002008490880084908704FF486
:1055E00080710748FAF783FE012205490148FDF75B
:1055F000D7FD10BDAC010020320000203400002097
:105600006709002070B505460C461348806B00689A
:105610004068C8B9B4F5807F01DD4FF48074002084
:1056200003E0295C0D4A1154401CA042F9DB0C48F0
:1056300004800948FDF78CFA0948028807490648A2
:10564000FDF730FE012070BD0348FDF7C6FAFEF7F6
:105650004DFA0020F7E70000AC01002065070020AC
:105660003000002010B50020084908800849087063
:105670004FF480710748FAF73AFE0020034908808A
:105680004FF480710448FAF732FE10BD320000205A
:1056900034000020670900206507002001460878D3
:1056A00000F0800008B901207047087800F0E000A1
:1056B000C02801D10220F7E7087800F0F000E028C8
:1056C00001D10320F0E7087800F0F800F02801D1BC
:1056D0000420E9E70020E7E702480068C0F3022061
:1056E000704700000CED00E010B5002804DB0A074D
:1056F000130E054A135406E00A07140E034A00F07D
:105700000F031B1FD45410BD00E400E018ED00E0AF
:1057100008B5FEF781FA00200E4B0FA2014600905B
:10572000FEF7A4FA00200B4B0BA210210090FEF70D
:105730009DFA0020074B08A220210090FEF796FA60
:105740000020044B04A230210090FEF78FFAFEF7F0
:1057500017FC08BDD478000831323300FBF75AFF3C
:10576000FFF7BFF9FDF7D6FFFDF7B2FFFEF73CF8F4
:10577000FEF7AAF8FEF7BAF9FEF7D4F9FEF752F8E9
:10578000FEF748F9FEF7F2F8FFF76CFFFFF71EFF90
:10579000FEF7E8F904210848FCF7D0FF192128207A
:1057A000FAF75EFE07E0FFF7B3FF4FF4C870FBF7B0
:1057B000DFFA00F003F8F6E71C01002010B5794885
:1057C0000078012876D1784800780028FAD10120A5
:1057D000754908707548008805284CDD744901201A
:1057E000FAF75CFE73490220FAF758FE44F2506063
:1057F000FBF7BEFA70490320FAF750FE41F28830F9
:10580000FBF7B6FAFA206D4908608000FBF7B0FAA2
:105810006B490320FAF742FE4FF4FA60FBF7A8FA4F
:1058200068490120FAF73AFE67490220FAF736FE86
:1058300046F2A810FBF79CFA5F490320FAF72EFE08
:1058400041F28830FBF794FA00205C4908604FF47D
:105850007A70FBF78DFA5A490320FAF71FFE4FF4CE
:105860007A60FBF785FA59490120FAF717FE584983
:105870000220FAF713FE4D48008805287ED15548CE
:1058800000784128FAD1534880782C28F6D140F28C
:1058900001115048FFF7B6FE4F480078052190FBF4
:1058A000F1F201FB12004C49087008460078052807
:1058B00033D200E075E0DFE800F0030C151E27008E
:1058C0000120FEF785FB44480078401C42490870DF
:1058D00024E00220FEF77CFB3F480078401C3E4954
:1058E00008701BE00320FEF773FB3B480078401C68
:1058F0003949087012E00420FEF76AFB3648007848
:10590000401C3549087009E00520FEF761FB32486C
:105910000078401C3049087000E000BF00BF2D48EF
:105920004078332809D12B48C078302805D132235C
:1059300003222AA12A48FDF756FC2648407833283E
:1059400009D12448C078312805D13223032225A16A
:105950002348FDF748FC1F484078332809D11D48EB
:10596000C078322805D1322303221FA11C48FDF73D
:105970003AFC1848407833280BD100E009E015487C
:10598000C078332805D13223032218A11448FDF72B
:105990002AFC002003490870FFF718FE0020024986
:1059A000087010BD340000203600002032000020B6
:1059B0000000A0410000B0C00000E040380C0040F2
:1059C0000000E0C06666E6C1000060C0CDCC0C41BE
:1059D0000000104167090020350000203030300001
:1059E000F4010020313131003232320033333300E0
:1059F000401058BFC0F14040491058BFC1F140416C
:105A00008142EFF300807047C10DD1F19E0206DBA9
:105A10004FEA002343F0004323FA02F070470042AC
:105A200007D54FEA4001B1F1FE4F02D24FF000001E
:105A3000704710B500F0BDF84992248000207047EF
:105A40006FEA20007047000050EA010C00F113805B
:105A50001CF5000F58BFBCF5000F01D488427047F9
:105A600007D710F5000F58BF11F5000F15D4884265
:105A70007047894270471CF5000F04D5BCF5000F34
:105A8000F7D5814270474FF0807C1CEB400F38BF48
:105A90001CEB410F01D28142704710B500F089F82C
:105AA000922449004FF000504FF08051FFF7A0BF03
:105AB0004FF47F0C1CEAD0121EBF1CEAD11392EAED
:105AC0000C0F93EA0C0F00F0478090EA010F48BFDB
:105AD00042F480724FF0004C4CEA00204CEA012165
